{"abi":[{"type":"constructor","inputs":[{"name":"starknetCore_","type":"address","internalType":"contract MockStarknetMessaging"}],"stateMutability":"nonpayable"},{"type":"function","name":"deposit","inputs":[{"name":"l2ContractAddress","type":"uint256","internalType":"uint256"},{"name":"user","type":"uint256","internalType":"uint256"},{"name":"amount","type":"uint256","internalType":"uint256"}],"outputs":[],"stateMutability":"payable"},{"type":"function","name":"get_balance","inputs":[{"name":"user","type":"uint256","internalType":"uint256"}],"outputs":[{"name":"","type":"uint256","internalType":"uint256"}],"stateMutability":"view"},{"type":"function","name":"userBalances","inputs":[{"name":"","type":"uint256","internalType":"uint256"}],"outputs":[{"name":"","type":"uint256","internalType":"uint256"}],"stateMutability":"view"},{"type":"function","name":"withdraw","inputs":[{"name":"l2ContractAddress","type":"uint256","internalType":"uint256"},{"name":"user","type":"uint256","internalType":"uint256"},{"name":"amount","type":"uint256","internalType":"uint256"}],"outputs":[],"stateMutability":"nonpayable"}],"bytecode":{"object":"0x608060405234801561001057600080fd5b506040516105463803806105468339818101604052602081101561003357600080fd5b5051600080546001600160a01b039092166001600160a01b03199092169190911790556104e1806100656000396000f3fe60806040526004361061003e5760003560e01c8062aeef8a14610043578063051475dd1461006e5780635b407a28146100aa578063a41fe49f146100d4575b600080fd5b61006c6004803603606081101561005957600080fd5b508035906020810135906040013561010a565b005b34801561007a57600080fd5b506100986004803603602081101561009157600080fd5b503561030a565b60408051918252519081900360200190f35b3480156100b657600080fd5b50610098600480360360208110156100cd57600080fd5b503561031c565b3480156100e057600080fd5b5061006c600480360360608110156100f757600080fd5b508035906020810135906040013561032e565b680100000000000000008110610159576040805162461bcd60e51b815260206004820152600f60248201526e24b73b30b634b21030b6b7bab73a1760891b604482015290519081900360640190fd5b6000828152600160205260409020548111156101a65760405162461bcd60e51b81526004018080602001828103825260278152602001806104856027913960400191505060405180910390fd5b600082815260016020526040908190208054839003905580516002808252606082810190935281602001602082028036833701905050905082816000815181106101ec57fe5b602002602001018181525050818160018151811061020657fe5b60200260200101818152505060008054906101000a90046001600160a01b03166001600160a01b0316633e3aa6c534867ec73f681176fc7b3f9693986fd7b14581e8d540519e27400e88b8713932be01856040518563ffffffff1660e01b81526004018084815260200183815260200180602001828103825283818151815260200191508051906020019060200280838360005b838110156102b257818101518382015260200161029a565b5050505090500194505050505060408051808303818588803b1580156102d757600080fd5b505af11580156102eb573d6000803e3d6000fd5b50505050506040513d604081101561030257600080fd5b505050505050565b60016020526000908152604090205481565b60009081526001602052604090205490565b6040805160038082526080820190925260609160208201838036833701905050905060008160008151811061035f57fe5b602002602001018181525050828160018151811061037957fe5b602002602001018181525050818160028151811061039357fe5b60200260200101818152505060008054906101000a90046001600160a01b03166001600160a01b0316632c9dd5c085836040518363ffffffff1660e01b81526004018083815260200180602001828103825283818151815260200191508051906020019060200280838360005b83811015610418578181015183820152602001610400565b505050509050019350505050602060405180830381600087803b15801561043e57600080fd5b505af1158015610452573d6000803e3d6000fd5b505050506040513d602081101561046857600080fd5b505050600091825260016020526040909120805490910190555056fe546865207573657227732062616c616e6365206973206e6f74206c6172676520656e6f7567682ea264697066735822122079c6e12bd49f39ff8ad89f29625e3669924714087ff52fa9fe502413d287867164736f6c634300060c0033","linkReferences":{}},"methodIdentifiers":{"deposit(uint256,uint256,uint256)":"00aeef8a","get_balance(uint256)":"5b407a28","userBalances(uint256)":"051475dd","withdraw(uint256,uint256,uint256)":"a41fe49f"},"id":19}