{"abi":[{"type":"constructor","inputs":[{"name":"MessageCancellationDelay","type":"uint256","internalType":"uint256"}],"stateMutability":"nonpayable"},{"type":"function","name":"cancelL1ToL2Message","inputs":[{"name":"toAddress","type":"uint256","internalType":"uint256"},{"name":"selector","type":"uint256","internalType":"uint256"},{"name":"payload","type":"uint256[]","internalType":"uint256[]"},{"name":"nonce","type":"uint256","internalType":"uint256"}],"outputs":[{"name":"","type":"bytes32","internalType":"bytes32"}],"stateMutability":"nonpayable"},{"type":"function","name":"consumeMessageFromL2","inputs":[{"name":"fromAddress","type":"uint256","internalType":"uint256"},{"name":"payload","type":"uint256[]","internalType":"uint256[]"}],"outputs":[{"name":"","type":"bytes32","internalType":"bytes32"}],"stateMutability":"nonpayable"},{"type":"function","name":"getMaxL1MsgFee","inputs":[],"outputs":[{"name":"","type":"uint256","internalType":"uint256"}],"stateMutability":"pure"},{"type":"function","name":"l1ToL2MessageCancellations","inputs":[{"name":"msgHash","type":"bytes32","internalType":"bytes32"}],"outputs":[{"name":"","type":"uint256","internalType":"uint256"}],"stateMutability":"view"},{"type":"function","name":"l1ToL2MessageNonce","inputs":[],"outputs":[{"name":"","type":"uint256","internalType":"uint256"}],"stateMutability":"view"},{"type":"function","name":"l1ToL2Messages","inputs":[{"name":"msgHash","type":"bytes32","internalType":"bytes32"}],"outputs":[{"name":"","type":"uint256","internalType":"uint256"}],"stateMutability":"view"},{"type":"function","name":"l2ToL1Messages","inputs":[{"name":"msgHash","type":"bytes32","internalType":"bytes32"}],"outputs":[{"name":"","type":"uint256","internalType":"uint256"}],"stateMutability":"view"},{"type":"function","name":"messageCancellationDelay","inputs":[],"outputs":[{"name":"","type":"uint256","internalType":"uint256"}],"stateMutability":"view"},{"type":"function","name":"mockConsumeMessageFromL2","inputs":[{"name":"fromAddress","type":"uint256","internalType":"uint256"},{"name":"toAddress","type":"uint256","internalType":"uint256"},{"name":"payload","type":"uint256[]","internalType":"uint256[]"}],"outputs":[],"stateMutability":"nonpayable"},{"type":"function","name":"mockSendMessageFromL2","inputs":[{"name":"fromAddress","type":"uint256","internalType":"uint256"},{"name":"toAddress","type":"uint256","internalType":"uint256"},{"name":"payload","type":"uint256[]","internalType":"uint256[]"}],"outputs":[],"stateMutability":"nonpayable"},{"type":"function","name":"sendMessageToL2","inputs":[{"name":"toAddress","type":"uint256","internalType":"uint256"},{"name":"selector","type":"uint256","internalType":"uint256"},{"name":"payload","type":"uint256[]","internalType":"uint256[]"}],"outputs":[{"name":"","type":"bytes32","internalType":"bytes32"},{"name":"","type":"uint256","internalType":"uint256"}],"stateMutability":"payable"},{"type":"function","name":"startL1ToL2MessageCancellation","inputs":[{"name":"toAddress","type":"uint256","internalType":"uint256"},{"name":"selector","type":"uint256","internalType":"uint256"},{"name":"payload","type":"uint256[]","internalType":"uint256[]"},{"name":"nonce","type":"uint256","internalType":"uint256"}],"outputs":[{"name":"","type":"bytes32","internalType":"bytes32"}],"stateMutability":"nonpayable"},{"type":"event","name":"ConsumedMessageToL1","inputs":[{"name":"fromAddress","type":"uint256","indexed":true,"internalType":"uint256"},{"name":"toAddress","type":"address","indexed":true,"internalType":"address"},{"name":"payload","type":"uint256[]","indexed":false,"internalType":"uint256[]"}],"anonymous":false},{"type":"event","name":"ConsumedMessageToL2","inputs":[{"name":"fromAddress","type":"address","indexed":true,"internalType":"address"},{"name":"toAddress","type":"uint256","indexed":true,"internalType":"uint256"},{"name":"selector","type":"uint256","indexed":true,"internalType":"uint256"},{"name":"payload","type":"uint256[]","indexed":false,"internalType":"uint256[]"},{"name":"nonce","type":"uint256","indexed":false,"internalType":"uint256"}],"anonymous":false},{"type":"event","name":"LogMessageToL1","inputs":[{"name":"fromAddress","type":"uint256","indexed":true,"internalType":"uint256"},{"name":"toAddress","type":"address","indexed":true,"internalType":"address"},{"name":"payload","type":"uint256[]","indexed":false,"internalType":"uint256[]"}],"anonymous":false},{"type":"event","name":"LogMessageToL2","inputs":[{"name":"fromAddress","type":"address","indexed":true,"internalType":"address"},{"name":"toAddress","type":"uint256","indexed":true,"internalType":"uint256"},{"name":"selector","type":"uint256","indexed":true,"internalType":"uint256"},{"name":"payload","type":"uint256[]","indexed":false,"internalType":"uint256[]"},{"name":"nonce","type":"uint256","indexed":false,"internalType":"uint256"},{"name":"fee","type":"uint256","indexed":false,"internalType":"uint256"}],"anonymous":false},{"type":"event","name":"MessageToL2Canceled","inputs":[{"name":"fromAddress","type":"address","indexed":true,"internalType":"address"},{"name":"toAddress","type":"uint256","indexed":true,"internalType":"uint256"},{"name":"selector","type":"uint256","indexed":true,"internalType":"uint256"},{"name":"payload","type":"uint256[]","indexed":false,"internalType":"uint256[]"},{"name":"nonce","type":"uint256","indexed":false,"internalType":"uint256"}],"anonymous":false},{"type":"event","name":"MessageToL2CancellationStarted","inputs":[{"name":"fromAddress","type":"address","indexed":true,"internalType":"address"},{"name":"toAddress","type":"uint256","indexed":true,"internalType":"uint256"},{"name":"selector","type":"uint256","indexed":true,"internalType":"uint256"},{"name":"payload","type":"uint256[]","indexed":false,"internalType":"uint256[]"},{"name":"nonce","type":"uint256","indexed":false,"internalType":"uint256"}],"anonymous":false}],"bytecode":{"object":"0x608060405234801561001057600080fd5b506040516112683803806112688339818101604052602081101561003357600080fd5b505161003e81610044565b506100ed565b6100706040518060600160405280602d815260200161123b602d91398261007360201b610db01760201c565b50565b6000826040516020018082805190602001908083835b602083106100a85780518252601f199092019160209182019101610089565b6001836020036101000a038019825116818451168082178552505050505050905001915050604051602081830303815290604052805190602001209050818155505050565b61113f806100fc6000396000f3fe6080604052600436106100a75760003560e01c80637a98660b116100645780637a98660b146102ae5780638303bd8a146103355780639be446bf1461034a578063a46efaf314610374578063d1fb15091461039e578063dc3f76a114610427576100a7565b8063018cccdf146100ac5780632c9dd5c0146100d35780633e3aa6c51461015557806354eccba4146101e85780636170ff1b146101fd57806377c7d7a914610284575b600080fd5b3480156100b857600080fd5b506100c16104ae565b60408051918252519081900360200190f35b3480156100df57600080fd5b506100c1600480360360408110156100f657600080fd5b81359190810190604081016020820135600160201b81111561011757600080fd5b82018360208201111561012957600080fd5b803590602001918460208302840111600160201b8311171561014a57600080fd5b5090925090506104f3565b6101cf6004803603606081101561016b57600080fd5b813591602081013591810190606081016040820135600160201b81111561019157600080fd5b8201836020820111156101a357600080fd5b803590602001918460208302840111600160201b831117156101c457600080fd5b509092509050610652565b6040805192835260208301919091528051918290030190f35b3480156101f457600080fd5b506100c16107f6565b34801561020957600080fd5b506100c16004803603608081101561022057600080fd5b813591602081013591810190606081016040820135600160201b81111561024657600080fd5b82018360208201111561025857600080fd5b803590602001918460208302840111600160201b8311171561027957600080fd5b919350915035610802565b34801561029057600080fd5b506100c1600480360360208110156102a757600080fd5b5035610a13565b3480156102ba57600080fd5b506100c1600480360360808110156102d157600080fd5b813591602081013591810190606081016040820135600160201b8111156102f757600080fd5b82018360208201111561030957600080fd5b803590602001918460208302840111600160201b8311171561032a57600080fd5b919350915035610a2e565b34801561034157600080fd5b506100c1610b41565b34801561035657600080fd5b506100c16004803603602081101561036d57600080fd5b5035610b64565b34801561038057600080fd5b506100c16004803603602081101561039757600080fd5b5035610b6e565b3480156103aa57600080fd5b50610425600480360360608110156103c157600080fd5b813591602081013591810190606081016040820135600160201b8111156103e757600080fd5b8201836020820111156103f957600080fd5b803590602001918460208302840111600160201b8311171561041a57600080fd5b509092509050610b78565b005b34801561043357600080fd5b506104256004803603606081101561044a57600080fd5b813591602081013591810190606081016040820135600160201b81111561047057600080fd5b82018360208201111561048257600080fd5b803590602001918460208302840111600160201b831117156104a357600080fd5b509092509050610c5f565b60006104ee6040518060400160405280602081526020017f535441524b4e45545f312e305f4d5347494e475f4c31544f4c325f4e4f4e4345815250610e2a565b905090565b60008084336001600160a01b03168585905086866040516020018086815260200185815260200184815260200183836020028082843780830192505050955050505050506040516020818303038152906040528051906020012090506000610559610ea7565b60008381526020919091526040902054116105bb576040805162461bcd60e51b815260206004820152601a60248201527f494e56414c49445f4d4553534147455f544f5f434f4e53554d45000000000000604482015290519081900360640190fd5b336001600160a01b0316857f7a06c571aa77f34d9706c51e5d8122b5595aebeaa34233bfe866f22befb973b1868660405180806020018281038252848482818152602001925060200280828437600083820152604051601f909101601f19169092018290039550909350505050a36001610633610ea7565b6000838152602091909152604090208054919091039055949350505050565b600080600034116106945760405162461bcd60e51b81526004018080602001828103825260218152602001806110e96021913960400191505060405180910390fd5b61069c6107f6565b3411156106f0576040805162461bcd60e51b815260206004820152601760248201527f4d41585f4c315f4d53475f4645455f4558434545444544000000000000000000604482015290519081900360640190fd5b60006106fa6104ae565b905061073e6040518060400160405280602081526020017f535441524b4e45545f312e305f4d5347494e475f4c31544f4c325f4e4f4e434581525082600101610db0565b8587336001600160a01b03167fdb80dd488acf86d17c747445b0eabb5d57c541d3bd7b6b87af987858e5066b2b8888863460405180806020018481526020018381526020018281038252868682818152602001925060200280828437600083820152604051601f909101601f191690920182900397509095505050505050a460006107cc8888888886610eca565b9050346001016107da610f3e565b6000838152602091909152604090205597909650945050505050565b670de0b6b3a764000090565b60008486336001600160a01b03167f8abd2ec2e0a10c82f5b60ea00455fa96c41fd144f225fcc52b8d83d94f803ed887878760405180806020018381526020018281038252858582818152602001925060200280828437600083820152604051601f909101601f1916909201829003965090945050505050a4600061088a8787878787610eca565b90506000610896610f3e565b600083815260209190915260409020549050806108f1576040805162461bcd60e51b81526020600482015260146024820152731393d7d35154d4d051d157d513d7d0d05390d15360621b604482015290519081900360640190fd5b60006108fb610f61565b600084815260209190915260409020549050806109495760405162461bcd60e51b81526004018080602001828103825260228152602001806110c76022913960400191505060405180910390fd5b6000610953610b41565b82019050818110156109ac576040805162461bcd60e51b815260206004820152601c60248201527f43414e43454c5f414c4c4f5745445f54494d455f4f564552464c4f5700000000604482015290519081900360640190fd5b804210156109eb5760405162461bcd60e51b8152600401808060200182810382526024815260200180610ffd6024913960400191505060405180910390fd5b60006109f5610f3e565b60008681526020919091526040902055509198975050505050505050565b6000610a1d610f3e565b600092835260205250604090205490565b60008486336001600160a01b03167f2e00dccd686fd6823ec7dc3e125582aa82881b6ff5f6b5a73856e1ea8338a3be87878760405180806020018381526020018281038252858582818152602001925060200280828437600083820152604051601f909101601f1916909201829003965090945050505050a46000610ab68787878787610eca565b90506000610ac2610f3e565b60008381526020919091526040902054905080610b1d576040805162461bcd60e51b81526020600482015260146024820152731393d7d35154d4d051d157d513d7d0d05390d15360621b604482015290519081900360640190fd5b42610b26610f61565b60008481526020919091526040902055509695505050505050565b60006104ee6040518060600160405280602d8152602001611051602d9139610e2a565b6000610a1d610f61565b6000610a1d610ea7565b600084848484905085856040516020018086815260200185815260200184815260200183836020028082843780830192505050955050505050506040516020818303038152906040528051906020012090506001610bd4610ea7565b60008381526020918252604090819020805490930190925581518181528082018590526001600160a01b0387169288927f4264ac208b5fde633ccdd42e0f12c3d6d443a4f3779bbf886925b94665b63a22928892889282918201908590850280828437600083820152604051601f909101601f19169092018290039550909350505050a35050505050565b600084848484905085856040516020018086815260200185815260200184815260200183836020028082843780830192505050955050505050506040516020818303038152906040528051906020012090506000610cbb610ea7565b6000838152602091909152604090205411610d1d576040805162461bcd60e51b815260206004820152601a60248201527f494e56414c49445f4d4553534147455f544f5f434f4e53554d45000000000000604482015290519081900360640190fd5b336001600160a01b0316857f7a06c571aa77f34d9706c51e5d8122b5595aebeaa34233bfe866f22befb973b1858560405180806020018281038252848482818152602001925060200280828437600083820152604051601f909101601f19169092018290039550909350505050a36001610d95610ea7565b60009283526020526040909120805491909103905550505050565b6000826040516020018082805190602001908083835b60208310610de55780518252601f199092019160209182019101610dc6565b6001836020036101000a038019825116818451168082178552505050505050905001915050604051602081830303815290604052805190602001209050818155505050565b600080826040516020018082805190602001908083835b60208310610e605780518252601f199092019160209182019101610e41565b6001836020036101000a0380198251168184511680821785525050505050509050019150506040516020818303038152906040528051906020012090508054915050919050565b60006104ee60405180606001604052806023815260200161107e60239139610f80565b6000336001600160a01b0316868387878790508888604051602001808881526020018781526020018681526020018581526020018481526020018383602002808284378083019250505097505050505050505060405160208183030381529060405280519060200120905095945050505050565b60006104ee6040518060600160405280602681526020016110a160269139610f80565b60006104ee604051806060016040528060308152602001611021603091395b600080826040516020018082805190602001908083835b60208310610fb65780518252601f199092019160209182019101610f97565b6001836020036101000a0380198251168184511680821785525050505050509050019150506040516020818303038152906040528051906020012090508091505091905056fe4d4553534147455f43414e43454c4c4154494f4e5f4e4f545f414c4c4f5745445f594554535441524b4e45545f312e305f4d5347494e475f4c31544f4c325f43414e43454c4c4154494f4e5f4d41505050494e47535441524b4e45545f312e305f4d5347494e475f4c31544f4c325f43414e43454c4c4154494f4e5f44454c4159535441524b4e45545f312e305f4d5347494e475f4c32544f4c315f4d41505050494e47535441524b4e45545f312e305f4d5347494e475f4c31544f4c325f4d41505050494e475f56324d4553534147455f43414e43454c4c4154494f4e5f4e4f545f5245515545535445444c315f4d53475f4645455f4d5553545f42455f475245415445525f5448414e5f30a26469706673582212202147135ed213514201a7d05d2211409f2cc0244858b3876d10baedaf83e0a34064736f6c634300060c0033535441524b4e45545f312e305f4d5347494e475f4c31544f4c325f43414e43454c4c4154494f4e5f44454c4159","linkReferences":{}},"methodIdentifiers":{"cancelL1ToL2Message(uint256,uint256,uint256[],uint256)":"6170ff1b","consumeMessageFromL2(uint256,uint256[])":"2c9dd5c0","getMaxL1MsgFee()":"54eccba4","l1ToL2MessageCancellations(bytes32)":"9be446bf","l1ToL2MessageNonce()":"018cccdf","l1ToL2Messages(bytes32)":"77c7d7a9","l2ToL1Messages(bytes32)":"a46efaf3","messageCancellationDelay()":"8303bd8a","mockConsumeMessageFromL2(uint256,uint256,uint256[])":"dc3f76a1","mockSendMessageFromL2(uint256,uint256,uint256[])":"d1fb1509","sendMessageToL2(uint256,uint256,uint256[])":"3e3aa6c5","startL1ToL2MessageCancellation(uint256,uint256,uint256[],uint256)":"7a98660b"},"id":20}