{
    "_format": "hh-sol-artifact-1",
    "contractName": "MockStarknetMessaging",
    "sourceName": "contracts/solidity/MockStarknetMessaging.sol",
    "abi": [
        {
            "inputs": [
                {
                    "internalType": "uint256",
                    "name": "MessageCancellationDelay",
                    "type": "uint256"
                }
            ],
            "stateMutability": "nonpayable",
            "type": "constructor"
        },
        {
            "anonymous": false,
            "inputs": [
                {
                    "indexed": true,
                    "internalType": "uint256",
                    "name": "fromAddress",
                    "type": "uint256"
                },
                {
                    "indexed": true,
                    "internalType": "address",
                    "name": "toAddress",
                    "type": "address"
                },
                {
                    "indexed": false,
                    "internalType": "uint256[]",
                    "name": "payload",
                    "type": "uint256[]"
                }
            ],
            "name": "ConsumedMessageToL1",
            "type": "event"
        },
        {
            "anonymous": false,
            "inputs": [
                {
                    "indexed": true,
                    "internalType": "address",
                    "name": "fromAddress",
                    "type": "address"
                },
                {
                    "indexed": true,
                    "internalType": "uint256",
                    "name": "toAddress",
                    "type": "uint256"
                },
                {
                    "indexed": true,
                    "internalType": "uint256",
                    "name": "selector",
                    "type": "uint256"
                },
                {
                    "indexed": false,
                    "internalType": "uint256[]",
                    "name": "payload",
                    "type": "uint256[]"
                },
                {
                    "indexed": false,
                    "internalType": "uint256",
                    "name": "nonce",
                    "type": "uint256"
                }
            ],
            "name": "ConsumedMessageToL2",
            "type": "event"
        },
        {
            "anonymous": false,
            "inputs": [
                {
                    "indexed": true,
                    "internalType": "uint256",
                    "name": "fromAddress",
                    "type": "uint256"
                },
                {
                    "indexed": true,
                    "internalType": "address",
                    "name": "toAddress",
                    "type": "address"
                },
                {
                    "indexed": false,
                    "internalType": "uint256[]",
                    "name": "payload",
                    "type": "uint256[]"
                }
            ],
            "name": "LogMessageToL1",
            "type": "event"
        },
        {
            "anonymous": false,
            "inputs": [
                {
                    "indexed": true,
                    "internalType": "address",
                    "name": "fromAddress",
                    "type": "address"
                },
                {
                    "indexed": true,
                    "internalType": "uint256",
                    "name": "toAddress",
                    "type": "uint256"
                },
                {
                    "indexed": true,
                    "internalType": "uint256",
                    "name": "selector",
                    "type": "uint256"
                },
                {
                    "indexed": false,
                    "internalType": "uint256[]",
                    "name": "payload",
                    "type": "uint256[]"
                },
                {
                    "indexed": false,
                    "internalType": "uint256",
                    "name": "nonce",
                    "type": "uint256"
                },
                {
                    "indexed": false,
                    "internalType": "uint256",
                    "name": "fee",
                    "type": "uint256"
                }
            ],
            "name": "LogMessageToL2",
            "type": "event"
        },
        {
            "anonymous": false,
            "inputs": [
                {
                    "indexed": true,
                    "internalType": "address",
                    "name": "fromAddress",
                    "type": "address"
                },
                {
                    "indexed": true,
                    "internalType": "uint256",
                    "name": "toAddress",
                    "type": "uint256"
                },
                {
                    "indexed": true,
                    "internalType": "uint256",
                    "name": "selector",
                    "type": "uint256"
                },
                {
                    "indexed": false,
                    "internalType": "uint256[]",
                    "name": "payload",
                    "type": "uint256[]"
                },
                {
                    "indexed": false,
                    "internalType": "uint256",
                    "name": "nonce",
                    "type": "uint256"
                }
            ],
            "name": "MessageToL2Canceled",
            "type": "event"
        },
        {
            "anonymous": false,
            "inputs": [
                {
                    "indexed": true,
                    "internalType": "address",
                    "name": "fromAddress",
                    "type": "address"
                },
                {
                    "indexed": true,
                    "internalType": "uint256",
                    "name": "toAddress",
                    "type": "uint256"
                },
                {
                    "indexed": true,
                    "internalType": "uint256",
                    "name": "selector",
                    "type": "uint256"
                },
                {
                    "indexed": false,
                    "internalType": "uint256[]",
                    "name": "payload",
                    "type": "uint256[]"
                },
                {
                    "indexed": false,
                    "internalType": "uint256",
                    "name": "nonce",
                    "type": "uint256"
                }
            ],
            "name": "MessageToL2CancellationStarted",
            "type": "event"
        },
        {
            "inputs": [],
            "name": "MAX_L1_MSG_FEE",
            "outputs": [
                {
                    "internalType": "uint256",
                    "name": "",
                    "type": "uint256"
                }
            ],
            "stateMutability": "view",
            "type": "function"
        },
        {
            "inputs": [
                {
                    "internalType": "uint256",
                    "name": "toAddress",
                    "type": "uint256"
                },
                {
                    "internalType": "uint256",
                    "name": "selector",
                    "type": "uint256"
                },
                {
                    "internalType": "uint256[]",
                    "name": "payload",
                    "type": "uint256[]"
                },
                {
                    "internalType": "uint256",
                    "name": "nonce",
                    "type": "uint256"
                }
            ],
            "name": "cancelL1ToL2Message",
            "outputs": [
                {
                    "internalType": "bytes32",
                    "name": "",
                    "type": "bytes32"
                }
            ],
            "stateMutability": "nonpayable",
            "type": "function"
        },
        {
            "inputs": [
                {
                    "internalType": "uint256",
                    "name": "fromAddress",
                    "type": "uint256"
                },
                {
                    "internalType": "uint256[]",
                    "name": "payload",
                    "type": "uint256[]"
                }
            ],
            "name": "consumeMessageFromL2",
            "outputs": [
                {
                    "internalType": "bytes32",
                    "name": "",
                    "type": "bytes32"
                }
            ],
            "stateMutability": "nonpayable",
            "type": "function"
        },
        {
            "inputs": [
                {
                    "internalType": "bytes32",
                    "name": "msgHash",
                    "type": "bytes32"
                }
            ],
            "name": "l1ToL2MessageCancellations",
            "outputs": [
                {
                    "internalType": "uint256",
                    "name": "",
                    "type": "uint256"
                }
            ],
            "stateMutability": "view",
            "type": "function"
        },
        {
            "inputs": [],
            "name": "l1ToL2MessageNonce",
            "outputs": [
                {
                    "internalType": "uint256",
                    "name": "",
                    "type": "uint256"
                }
            ],
            "stateMutability": "view",
            "type": "function"
        },
        {
            "inputs": [
                {
                    "internalType": "bytes32",
                    "name": "msgHash",
                    "type": "bytes32"
                }
            ],
            "name": "l1ToL2Messages",
            "outputs": [
                {
                    "internalType": "uint256",
                    "name": "",
                    "type": "uint256"
                }
            ],
            "stateMutability": "view",
            "type": "function"
        },
        {
            "inputs": [
                {
                    "internalType": "bytes32",
                    "name": "msgHash",
                    "type": "bytes32"
                }
            ],
            "name": "l2ToL1Messages",
            "outputs": [
                {
                    "internalType": "uint256",
                    "name": "",
                    "type": "uint256"
                }
            ],
            "stateMutability": "view",
            "type": "function"
        },
        {
            "inputs": [],
            "name": "messageCancellationDelay",
            "outputs": [
                {
                    "internalType": "uint256",
                    "name": "",
                    "type": "uint256"
                }
            ],
            "stateMutability": "view",
            "type": "function"
        },
        {
            "inputs": [
                {
                    "internalType": "uint256",
                    "name": "fromAddress",
                    "type": "uint256"
                },
                {
                    "internalType": "uint256",
                    "name": "toAddress",
                    "type": "uint256"
                },
                {
                    "internalType": "uint256",
                    "name": "selector",
                    "type": "uint256"
                },
                {
                    "internalType": "uint256[]",
                    "name": "payload",
                    "type": "uint256[]"
                },
                {
                    "internalType": "uint256",
                    "name": "nonce",
                    "type": "uint256"
                }
            ],
            "name": "mockConsumeMessageToL2",
            "outputs": [],
            "stateMutability": "nonpayable",
            "type": "function"
        },
        {
            "inputs": [
                {
                    "internalType": "uint256",
                    "name": "fromAddress",
                    "type": "uint256"
                },
                {
                    "internalType": "uint256",
                    "name": "toAddress",
                    "type": "uint256"
                },
                {
                    "internalType": "uint256[]",
                    "name": "payload",
                    "type": "uint256[]"
                }
            ],
            "name": "mockSendMessageFromL2",
            "outputs": [],
            "stateMutability": "nonpayable",
            "type": "function"
        },
        {
            "inputs": [
                {
                    "internalType": "uint256",
                    "name": "toAddress",
                    "type": "uint256"
                },
                {
                    "internalType": "uint256",
                    "name": "selector",
                    "type": "uint256"
                },
                {
                    "internalType": "uint256[]",
                    "name": "payload",
                    "type": "uint256[]"
                }
            ],
            "name": "sendMessageToL2",
            "outputs": [
                {
                    "internalType": "bytes32",
                    "name": "",
                    "type": "bytes32"
                },
                {
                    "internalType": "uint256",
                    "name": "",
                    "type": "uint256"
                }
            ],
            "stateMutability": "payable",
            "type": "function"
        },
        {
            "inputs": [
                {
                    "internalType": "uint256",
                    "name": "toAddress",
                    "type": "uint256"
                },
                {
                    "internalType": "uint256",
                    "name": "selector",
                    "type": "uint256"
                },
                {
                    "internalType": "uint256[]",
                    "name": "payload",
                    "type": "uint256[]"
                },
                {
                    "internalType": "uint256",
                    "name": "nonce",
                    "type": "uint256"
                }
            ],
            "name": "startL1ToL2MessageCancellation",
            "outputs": [
                {
                    "internalType": "bytes32",
                    "name": "",
                    "type": "bytes32"
                }
            ],
            "stateMutability": "nonpayable",
            "type": "function"
        }
    ],
    "bytecode": "0x608060405234801561001057600080fd5b506040516114cd3803806114cd8339818101604052602081101561003357600080fd5b81019080805190602001909291905050506100538161005960201b60201c565b50610106565b6100856040518060600160405280602d81526020016114a0602d91398261008860201b610ff11760201c565b50565b6000826040516020018082805190602001908083835b602083106100c1578051825260208201915060208101905060208303925061009e565b6001836020036101000a038019825116818451168082178552505050505050905001915050604051602081830303815290604052805190602001209050818155505050565b61138b806101156000396000f3fe6080604052600436106100a75760003560e01c80637a98660b116100645780637a98660b146103d85780637cbe06d1146104905780638303bd8a146104bb5780639be446bf146104e6578063a46efaf314610535578063d1fb150914610584576100a7565b8063018cccdf146100ac578063067aba99146100d75780632c9dd5c0146101855780633e3aa6c5146102295780636170ff1b146102d157806377c7d7a914610389575b600080fd5b3480156100b857600080fd5b506100c161061e565b6040518082815260200191505060405180910390f35b3480156100e357600080fd5b50610183600480360360a08110156100fa57600080fd5b810190808035906020019092919080359060200190929190803590602001909291908035906020019064010000000081111561013557600080fd5b82018360208201111561014757600080fd5b8035906020019184602083028401116401000000008311171561016957600080fd5b909192939192939080359060200190929190505050610663565b005b34801561019157600080fd5b50610213600480360360408110156101a857600080fd5b8101908080359060200190929190803590602001906401000000008111156101cf57600080fd5b8201836020820111156101e157600080fd5b8035906020019184602083028401116401000000008311171561020357600080fd5b909192939192939050505061077c565b6040518082815260200191505060405180910390f35b6102b46004803603606081101561023f57600080fd5b8101908080359060200190929190803590602001909291908035906020019064010000000081111561027057600080fd5b82018360208201111561028257600080fd5b803590602001918460208302840111640100000000831117156102a457600080fd5b9091929391929390505050610925565b604051808381526020018281526020019250505060405180910390f35b3480156102dd57600080fd5b50610373600480360360808110156102f457600080fd5b8101908080359060200190929190803590602001909291908035906020019064010000000081111561032557600080fd5b82018360208201111561033757600080fd5b8035906020019184602083028401116401000000008311171561035957600080fd5b909192939192939080359060200190929190505050610ac6565b6040518082815260200191505060405180910390f35b34801561039557600080fd5b506103c2600480360360208110156103ac57600080fd5b8101908080359060200190929190505050610d79565b6040518082815260200191505060405180910390f35b3480156103e457600080fd5b5061047a600480360360808110156103fb57600080fd5b8101908080359060200190929190803590602001909291908035906020019064010000000081111561042c57600080fd5b82018360208201111561043e57600080fd5b8035906020019184602083028401116401000000008311171561046057600080fd5b909192939192939080359060200190929190505050610d9c565b6040518082815260200191505060405180910390f35b34801561049c57600080fd5b506104a5610ef6565b6040518082815260200191505060405180910390f35b3480156104c757600080fd5b506104d0610f02565b6040518082815260200191505060405180910390f35b3480156104f257600080fd5b5061051f6004803603602081101561050957600080fd5b8101908080359060200190929190505050610f2a565b6040518082815260200191505060405180910390f35b34801561054157600080fd5b5061056e6004803603602081101561055857600080fd5b8101908080359060200190929190505050610f4d565b6040518082815260200191505060405180910390f35b34801561059057600080fd5b5061061c600480360360608110156105a757600080fd5b810190808035906020019092919080359060200190929190803590602001906401000000008111156105d857600080fd5b8201836020820111156105ea57600080fd5b8035906020019184602083028401116401000000008311171561060c57600080fd5b9091929391929390505050610f70565b005b600061065e6040518060400160405280602081526020017f535441524b4e45545f312e305f4d5347494e475f4c31544f4c325f4e4f4e434581525061106f565b905090565b600086868387878790508888604051602001808881526020018781526020018681526020018581526020018481526020018383602002808284378083019250505097505050505050505060405160208183030381529060405280519060200120905060006106cf6110f0565b60008381526020019081526020016000205411610754576040517f08c379a000000000000000000000000000000000000000000000000000000000815260040180806020018281038252601a8152602001807f494e56414c49445f4d4553534147455f544f5f434f4e53554d4500000000000081525060200191505060405180910390fd5b600061075e6110f0565b60008381526020019081526020016000208190555050505050505050565b600080843373ffffffffffffffffffffffffffffffffffffffff1685859050868660405160200180868152602001858152602001848152602001838360200280828437808301925050509550505050505060405160208183030381529060405280519060200120905060006107ef611118565b60008381526020019081526020016000205411610874576040517f08c379a000000000000000000000000000000000000000000000000000000000815260040180806020018281038252601a8152602001807f494e56414c49445f4d4553534147455f544f5f434f4e53554d4500000000000081525060200191505060405180910390fd5b3373ffffffffffffffffffffffffffffffffffffffff16857f7a06c571aa77f34d9706c51e5d8122b5595aebeaa34233bfe866f22befb973b1868660405180806020018281038252848482818152602001925060200280828437600081840152601f19601f820116905080830192505050935050505060405180910390a360016108fc611118565b600083815260200190815260200160002060008282540392505081905550809150509392505050565b600080670de0b6b3a76400003411156109a6576040517f08c379a00000000000000000000000000000000000000000000000000000000081526004018080602001828103825260178152602001807f4d41585f4c315f4d53475f4645455f455843454544454400000000000000000081525060200191505060405180910390fd5b60006109b061061e565b90506109f46040518060400160405280602081526020017f535441524b4e45545f312e305f4d5347494e475f4c31544f4c325f4e4f4e434581525060018301610ff1565b85873373ffffffffffffffffffffffffffffffffffffffff167fdb80dd488acf86d17c747445b0eabb5d57c541d3bd7b6b87af987858e5066b2b8888863460405180806020018481526020018381526020018281038252868682818152602001925060200280828437600081840152601f19601f8201169050808301925050509550505050505060405180910390a46000610a928888888886611140565b905060013401610aa06110f0565b600083815260200190815260200160002081905550808293509350505094509492505050565b600084863373ffffffffffffffffffffffffffffffffffffffff167f8abd2ec2e0a10c82f5b60ea00455fa96c41fd144f225fcc52b8d83d94f803ed887878760405180806020018381526020018281038252858582818152602001925060200280828437600081840152601f19601f82011690508083019250505094505050505060405180910390a46000610b5e8787878787611140565b90506000610b6a6110f0565b60008381526020019081526020016000205490506000811415610bf5576040517f08c379a00000000000000000000000000000000000000000000000000000000081526004018080602001828103825260148152602001807f4e4f5f4d4553534147455f544f5f43414e43454c00000000000000000000000081525060200191505060405180910390fd5b6000610bff6111c1565b60008481526020019081526020016000205490506000811415610c6d576040517f08c379a00000000000000000000000000000000000000000000000000000000081526004018080602001828103825260228152602001806113346022913960400191505060405180910390fd5b6000610c77610f02565b8201905081811015610cf1576040517f08c379a000000000000000000000000000000000000000000000000000000000815260040180806020018281038252601c8152602001807f43414e43454c5f414c4c4f5745445f54494d455f4f564552464c4f570000000081525060200191505060405180910390fd5b80421015610d4a576040517f08c379a000000000000000000000000000000000000000000000000000000000815260040180806020018281038252602481526020018061126a6024913960400191505060405180910390fd5b6000610d546110f0565b6000868152602001908152602001600020819055508394505050505095945050505050565b6000610d836110f0565b6000838152602001908152602001600020549050919050565b600084863373ffffffffffffffffffffffffffffffffffffffff167f2e00dccd686fd6823ec7dc3e125582aa82881b6ff5f6b5a73856e1ea8338a3be87878760405180806020018381526020018281038252858582818152602001925060200280828437600081840152601f19601f82011690508083019250505094505050505060405180910390a46000610e348787878787611140565b90506000610e406110f0565b600083815260200190815260200160002054905060008111610eca576040517f08c379a00000000000000000000000000000000000000000000000000000000081526004018080602001828103825260148152602001807f4e4f5f4d4553534147455f544f5f43414e43454c00000000000000000000000081525060200191505060405180910390fd5b42610ed36111c1565b600084815260200190815260200160002081905550819250505095945050505050565b670de0b6b3a764000081565b6000610f256040518060600160405280602d81526020016112be602d913961106f565b905090565b6000610f346111c1565b6000838152602001908152602001600020549050919050565b6000610f57611118565b6000838152602001908152602001600020549050919050565b600084848484905085856040516020018086815260200185815260200184815260200183836020028082843780830192505050955050505050506040516020818303038152906040528051906020012090506001610fcc611118565b6000838152602001908152602001600020600082825401925050819055505050505050565b6000826040516020018082805190602001908083835b6020831061102a5780518252602082019150602081019050602083039250611007565b6001836020036101000a038019825116818451168082178552505050505050905001915050604051602081830303815290604052805190602001209050818155505050565b600080826040516020018082805190602001908083835b602083106110a95780518252602082019150602081019050602083039250611086565b6001836020036101000a0380198251168184511680821785525050505050509050019150506040516020818303038152906040528051906020012090508054915050919050565b600061111360405180606001604052806026815260200161130e602691396111e9565b905090565b600061113b6040518060600160405280602381526020016112eb602391396111e9565b905090565b60003373ffffffffffffffffffffffffffffffffffffffff16868387878790508888604051602001808881526020018781526020018681526020018581526020018481526020018383602002808284378083019250505097505050505050505060405160208183030381529060405280519060200120905095945050505050565b60006111e460405180606001604052806030815260200161128e603091396111e9565b905090565b600080826040516020018082805190602001908083835b602083106112235780518252602082019150602081019050602083039250611200565b6001836020036101000a0380198251168184511680821785525050505050509050019150506040516020818303038152906040528051906020012090508091505091905056fe4d4553534147455f43414e43454c4c4154494f4e5f4e4f545f414c4c4f5745445f594554535441524b4e45545f312e305f4d5347494e475f4c31544f4c325f43414e43454c4c4154494f4e5f4d41505050494e47535441524b4e45545f312e305f4d5347494e475f4c31544f4c325f43414e43454c4c4154494f4e5f44454c4159535441524b4e45545f312e305f4d5347494e475f4c32544f4c315f4d41505050494e47535441524b4e45545f312e305f4d5347494e475f4c31544f4c325f4d41505050494e475f56324d4553534147455f43414e43454c4c4154494f4e5f4e4f545f524551554553544544a26469706673582212202522ef86586c53feb04720136725ae17263e85cb7740983a43412d2b837605b464736f6c634300060c0033535441524b4e45545f312e305f4d5347494e475f4c31544f4c325f43414e43454c4c4154494f4e5f44454c4159",
    "linkReferences": {},
    "deployedLinkReferences": {}
}